{"abi":[{"type":"function","name":"answer","inputs":[],"outputs":[{"name":"","type":"int256","internalType":"int256"}],"stateMutability":"view"},{"type":"function","name":"answeredInRound","inputs":[],"outputs":[{"name":"","type":"uint80","internalType":"uint80"}],"stateMutability":"view"},{"type":"function","name":"decimals","inputs":[],"outputs":[{"name":"","type":"uint8","internalType":"uint8"}],"stateMutability":"pure"},{"type":"function","name":"description","inputs":[],"outputs":[{"name":"","type":"string","internalType":"string"}],"stateMutability":"pure"},{"type":"function","name":"getRoundData","inputs":[{"name":"_roundId","type":"uint80","internalType":"uint80"}],"outputs":[{"name":"","type":"uint80","internalType":"uint80"},{"name":"","type":"int256","internalType":"int256"},{"name":"","type":"uint256","internalType":"uint256"},{"name":"","type":"uint256","internalType":"uint256"},{"name":"","type":"uint80","internalType":"uint80"}],"stateMutability":"view"},{"type":"function","name":"latestRoundData","inputs":[],"outputs":[{"name":"","type":"uint80","internalType":"uint80"},{"name":"","type":"int256","internalType":"int256"},{"name":"","type":"uint256","internalType":"uint256"},{"name":"","type":"uint256","internalType":"uint256"},{"name":"","type":"uint80","internalType":"uint80"}],"stateMutability":"view"},{"type":"function","name":"roundId","inputs":[],"outputs":[{"name":"","type":"uint80","internalType":"uint80"}],"stateMutability":"view"},{"type":"function","name":"setLatestRoundData","inputs":[{"name":"_roundId","type":"uint80","internalType":"uint80"},{"name":"_answer","type":"int256","internalType":"int256"},{"name":"_startedAt","type":"uint256","internalType":"uint256"},{"name":"_updatedAt","type":"uint256","internalType":"uint256"},{"name":"_answeredInRound","type":"uint80","internalType":"uint80"}],"outputs":[],"stateMutability":"nonpayable"},{"type":"function","name":"startedAt","inputs":[],"outputs":[{"name":"","type":"uint256","internalType":"uint256"}],"stateMutability":"view"},{"type":"function","name":"updatedAt","inputs":[],"outputs":[{"name":"","type":"uint256","internalType":"uint256"}],"stateMutability":"view"},{"type":"function","name":"version","inputs":[],"outputs":[{"name":"","type":"uint256","internalType":"uint256"}],"stateMutability":"pure"}],"bytecode":{"object":"0x608080604052346015576103e5908161001a8239f35b5f80fdfe6080806040526004361015610012575f80fd5b5f3560e01c908163313ce5671461037d575080634005e681146102d957806354fd4d50146102be5780637284e416146101ed5780637519ab50146101d057806385bb7d69146101b45780638cd221c91461018b5780639a6fc8f514610132578063c22c249914610109578063f21f537d146100ec5763feaf968c14610095575f80fd5b346100e8575f6003193601126100e8576001545f546002546003546004546040805169ffffffffffffffffffff96871681526020810195909552840192909252606083015291909116608082015260a090f35b5f80fd5b346100e8575f6003193601126100e8576020600254604051908152f35b346100e8575f6003193601126100e857602069ffffffffffffffffffff60045416604051908152f35b346100e85760206003193601126100e85761014b610396565b5f546002546003546004546040805169ffffffffffffffffffff96871681526020810195909552840192909252606083015291909116608082015260a090f35b346100e8575f6003193601126100e857602069ffffffffffffffffffff60015416604051908152f35b346100e8575f6003193601126100e85760205f54604051908152f35b346100e8575f6003193601126100e8576020600354604051908152f35b346100e8575f6003193601126100e8576040516040810181811067ffffffffffffffff82111761029157604052600f8152604060208201917f4d6f636b2041676772656761746f72000000000000000000000000000000000083527fffffffffffffffffffffffffffffffffffffffffffffffffffffffffffffffe0601f8351948593602085525180918160208701528686015e5f85828601015201168101030190f35b7f4e487b71000000000000000000000000000000000000000000000000000000005f52604160045260245ffd5b346100e8575f6003193601126100e857602060405160018152f35b346100e85760a06003193601126100e8576102f2610396565b6084359069ffffffffffffffffffff82168092036100e85769ffffffffffffffffffff167fffffffffffffffffffffffffffffffffffffffffffff0000000000000000000060015416176001556024355f556044356002556064356003557fffffffffffffffffffffffffffffffffffffffffffff0000000000000000000060045416176004555f80f35b346100e8575f6003193601126100e85780600860209252f35b6004359069ffffffffffffffffffff821682036100e85756fea2646970667358221220ea1b36adff80c3195909296b8b07d7eb59988f147367eef461d5ad897696e4cf64736f6c634300081b0033","linkReferences":{}},"methodIdentifiers":{"answer()":"85bb7d69","answeredInRound()":"c22c2499","decimals()":"313ce567","description()":"7284e416","getRoundData(uint80)":"9a6fc8f5","latestRoundData()":"feaf968c","roundId()":"8cd221c9","setLatestRoundData(uint80,int256,uint256,uint256,uint80)":"4005e681","startedAt()":"f21f537d","updatedAt()":"7519ab50","version()":"54fd4d50"},"id":4}