{"abi":[{"type":"constructor","inputs":[{"name":"beneficiary","type":"address","internalType":"address"},{"name":"startTimestamp","type":"uint64","internalType":"uint64"},{"name":"durationSeconds","type":"uint64","internalType":"uint64"}],"stateMutability":"payable"},{"type":"receive","stateMutability":"payable"},{"type":"function","name":"duration","inputs":[],"outputs":[{"name":"","type":"uint256","internalType":"uint256"}],"stateMutability":"view"},{"type":"function","name":"end","inputs":[],"outputs":[{"name":"","type":"uint256","internalType":"uint256"}],"stateMutability":"view"},{"type":"function","name":"owner","inputs":[],"outputs":[{"name":"","type":"address","internalType":"address"}],"stateMutability":"view"},{"type":"function","name":"releasable","inputs":[{"name":"token","type":"address","internalType":"address"}],"outputs":[{"name":"","type":"uint256","internalType":"uint256"}],"stateMutability":"view"},{"type":"function","name":"releasable","inputs":[],"outputs":[{"name":"","type":"uint256","internalType":"uint256"}],"stateMutability":"view"},{"type":"function","name":"release","inputs":[{"name":"token","type":"address","internalType":"address"}],"outputs":[],"stateMutability":"nonpayable"},{"type":"function","name":"release","inputs":[],"outputs":[],"stateMutability":"nonpayable"},{"type":"function","name":"released","inputs":[],"outputs":[{"name":"","type":"uint256","internalType":"uint256"}],"stateMutability":"view"},{"type":"function","name":"released","inputs":[{"name":"token","type":"address","internalType":"address"}],"outputs":[{"name":"","type":"uint256","internalType":"uint256"}],"stateMutability":"view"},{"type":"function","name":"renounceOwnership","inputs":[],"outputs":[],"stateMutability":"nonpayable"},{"type":"function","name":"start","inputs":[],"outputs":[{"name":"","type":"uint256","internalType":"uint256"}],"stateMutability":"view"},{"type":"function","name":"transferOwnership","inputs":[{"name":"newOwner","type":"address","internalType":"address"}],"outputs":[],"stateMutability":"nonpayable"},{"type":"function","name":"vestedAmount","inputs":[{"name":"timestamp","type":"uint64","internalType":"uint64"}],"outputs":[{"name":"","type":"uint256","internalType":"uint256"}],"stateMutability":"view"},{"type":"function","name":"vestedAmount","inputs":[{"name":"token","type":"address","internalType":"address"},{"name":"timestamp","type":"uint64","internalType":"uint64"}],"outputs":[{"name":"","type":"uint256","internalType":"uint256"}],"stateMutability":"view"},{"type":"event","name":"ERC20Released","inputs":[{"name":"token","type":"address","indexed":true,"internalType":"address"},{"name":"amount","type":"uint256","indexed":false,"internalType":"uint256"}],"anonymous":false},{"type":"event","name":"EtherReleased","inputs":[{"name":"amount","type":"uint256","indexed":false,"internalType":"uint256"}],"anonymous":false},{"type":"event","name":"OwnershipTransferred","inputs":[{"name":"previousOwner","type":"address","indexed":true,"internalType":"address"},{"name":"newOwner","type":"address","indexed":true,"internalType":"address"}],"anonymous":false},{"type":"error","name":"FailedCall","inputs":[]},{"type":"error","name":"InsufficientBalance","inputs":[{"name":"balance","type":"uint256","internalType":"uint256"},{"name":"needed","type":"uint256","internalType":"uint256"}]},{"type":"error","name":"OwnableInvalidOwner","inputs":[{"name":"owner","type":"address","internalType":"address"}]},{"type":"error","name":"OwnableUnauthorizedAccount","inputs":[{"name":"account","type":"address","internalType":"address"}]},{"type":"error","name":"SafeERC20FailedOperation","inputs":[{"name":"token","type":"address","internalType":"address"}]}],"bytecode":{"object":"0x60c0601f610b5c38819003918201601f19168301916001600160401b0383118484101761010b578084926060946040528339810103126101075780516001600160a01b038116919082900361010757610066604061005f6020840161011f565b920161011f565b9082156100f4575f80546001600160a01b031981168517825560405194916001600160a01b03909116907f8be0079c531659141344cd1fd0a4f28419497f9722a3daafe3b4186f6b6457e09080a360805260a052610a289081610134823960805181818161020b015281816108b201526108e7015260a05181818161068501528181610887015261094e0152f35b631e4fbdf760e01b5f525f60045260245ffd5b5f80fd5b634e487b7160e01b5f52604160045260245ffd5b51906001600160401b03821682036101075756fe6080604052600436101561001a575b3615610018575f80fd5b005b5f3560e01c80630a17b06b146106a95780630fb5a6b414610665578063191655871461052d578063715018a6146104b1578063810ec23b1461047757806386d1a69f146102e65780638da5cb5b146102b457806396132521146102975780639852595c14610252578063a3f8eace1461022f578063be9a6555146101eb578063efbe1c1c146101d1578063f2fde38b146101035763fbccedae0361000e57346100ff575f6003193601126100ff5760206100f76100ee476100e967ffffffffffffffff42169160015490610704565b6108d7565b6001549061082b565b604051908152f35b5f80fd5b346100ff5760206003193601126100ff5773ffffffffffffffffffffffffffffffffffffffff6101316106e1565b6101396109a6565b1680156101a55773ffffffffffffffffffffffffffffffffffffffff5f54827fffffffffffffffffffffffff00000000000000000000000000000000000000008216175f55167f8be0079c531659141344cd1fd0a4f28419497f9722a3daafe3b4186f6b6457e05f80a3005b7f1e4fbdf7000000000000000000000000000000000000000000000000000000005f525f60045260245ffd5b346100ff575f6003193601126100ff5760206100f7610879565b346100ff575f6003193601126100ff57602060405167ffffffffffffffff7f0000000000000000000000000000000000000000000000000000000000000000168152f35b346100ff5760206003193601126100ff5760206100f761024d6106e1565b610838565b346100ff5760206003193601126100ff5773ffffffffffffffffffffffffffffffffffffffff6102806106e1565b165f526002602052602060405f2054604051908152f35b346100ff575f6003193601126100ff576020600154604051908152f35b346100ff575f6003193601126100ff57602073ffffffffffffffffffffffffffffffffffffffff5f5416604051908152f35b346100ff575f6003193601126100ff57610312476100e967ffffffffffffffff42169160015490610704565b610329610322600154809361082b565b8092610704565b6001557fda9d4e5f101b8b9b1c5b76d0c5a9f7923571acfc02376aa076b75a8c080c956b6020604051838152a173ffffffffffffffffffffffffffffffffffffffff5f5416814710610447575f80809381935af13d1561043f573d9067ffffffffffffffff821161041257604051916103ca60207fffffffffffffffffffffffffffffffffffffffffffffffffffffffffffffffe0601f840116018461073e565b82523d5f602084013e5b156103db57005b8051156103ea57805190602001fd5b7fd6bda275000000000000000000000000000000000000000000000000000000005f5260045ffd5b7f4e487b71000000000000000000000000000000000000000000000000000000005f52604160045260245ffd5b6060906103d4565b50477fcf479181000000000000000000000000000000000000000000000000000000005f5260045260245260445ffd5b346100ff5760406003193601126100ff576104906106e1565b6024359067ffffffffffffffff821682036100ff576020916100f79161077f565b346100ff575f6003193601126100ff576104c96109a6565b5f73ffffffffffffffffffffffffffffffffffffffff81547fffffffffffffffffffffffff000000000000000000000000000000000000000081168355167f8be0079c531659141344cd1fd0a4f28419497f9722a3daafe3b4186f6b6457e08280a3005b346100ff5760206003193601126100ff576105466106e1565b60205f73ffffffffffffffffffffffffffffffffffffffff61056784610838565b9316928382526002835260408220610580828254610704565b9055837fc0e523490dd523c33b1878c9eb14ff46991e3f5b2cd33710918618f2a39cba1b84604051848152a273ffffffffffffffffffffffffffffffffffffffff8254169060405190848201927fa9059cbb000000000000000000000000000000000000000000000000000000008452602483015260448201526044815261060960648261073e565b519082855af11561065a575f513d6106515750803b155b61062657005b7f5274afe7000000000000000000000000000000000000000000000000000000005f5260045260245ffd5b60011415610620565b6040513d5f823e3d90fd5b346100ff575f6003193601126100ff57602060405167ffffffffffffffff7f0000000000000000000000000000000000000000000000000000000000000000168152f35b346100ff5760206003193601126100ff5760043567ffffffffffffffff811681036100ff576100f76020916100e94760015490610704565b6004359073ffffffffffffffffffffffffffffffffffffffff821682036100ff57565b9190820180921161071157565b7f4e487b71000000000000000000000000000000000000000000000000000000005f52601160045260245ffd5b90601f7fffffffffffffffffffffffffffffffffffffffffffffffffffffffffffffffe0910116810190811067ffffffffffffffff82111761041257604052565b73ffffffffffffffffffffffffffffffffffffffff16906040517f70a08231000000000000000000000000000000000000000000000000000000008152306004820152602081602481865afa90811561065a575f916107f7575b506100e9906107f4935f52600260205260405f205490610704565b90565b90506020813d602011610823575b816108126020938361073e565b810103126100ff57516107f46107d9565b3d9150610805565b9190820391821161071157565b6107f49073ffffffffffffffffffffffffffffffffffffffff61086567ffffffffffffffff42168361077f565b91165f52600260205260405f20549061082b565b6107f467ffffffffffffffff7f00000000000000000000000000000000000000000000000000000000000000001667ffffffffffffffff7f000000000000000000000000000000000000000000000000000000000000000016610704565b9067ffffffffffffffff908116907f00000000000000000000000000000000000000000000000000000000000000001680821015610916575050505f90565b61091e610879565b821061092957505090565b6109329161082b565b908181029181830414901517156107115767ffffffffffffffff7f000000000000000000000000000000000000000000000000000000000000000016908115610979570490565b7f4e487b71000000000000000000000000000000000000000000000000000000005f52601260045260245ffd5b73ffffffffffffffffffffffffffffffffffffffff5f541633036109c657565b7f118cdaa7000000000000000000000000000000000000000000000000000000005f523360045260245ffdfea26469706673582212200a2393f44d00c3b9a5df519067503178b0ae128b37a311e1172ab0480ea093ac64736f6c634300081b0033","linkReferences":{}},"methodIdentifiers":{"duration()":"0fb5a6b4","end()":"efbe1c1c","owner()":"8da5cb5b","releasable()":"fbccedae","releasable(address)":"a3f8eace","release()":"86d1a69f","release(address)":"19165587","released()":"96132521","released(address)":"9852595c","renounceOwnership()":"715018a6","start()":"be9a6555","transferOwnership(address)":"f2fde38b","vestedAmount(address,uint64)":"810ec23b","vestedAmount(uint64)":"0a17b06b"},"id":32}