{"abi":[{"type":"constructor","inputs":[{"name":"priceFeed_","type":"address","internalType":"address"},{"name":"token_","type":"address","internalType":"address"},{"name":"wallet_","type":"address","internalType":"address payable"},{"name":"usdRate_","type":"uint256","internalType":"uint256"},{"name":"vestingEndDate_","type":"uint256","internalType":"uint256"},{"name":"vestingVault_","type":"address","internalType":"address"}],"stateMutability":"nonpayable"},{"type":"fallback","stateMutability":"payable"},{"type":"receive","stateMutability":"payable"},{"type":"function","name":"DEFAULT_ADMIN_ROLE","inputs":[],"outputs":[{"name":"","type":"bytes32","internalType":"bytes32"}],"stateMutability":"view"},{"type":"function","name":"WHITELISTED_ROLE","inputs":[],"outputs":[{"name":"","type":"bytes32","internalType":"bytes32"}],"stateMutability":"view"},{"type":"function","name":"buyTokens","inputs":[{"name":"beneficiary","type":"address","internalType":"address"}],"outputs":[],"stateMutability":"payable"},{"type":"function","name":"externalBuyTokens","inputs":[{"name":"beneficiary","type":"address","internalType":"address"},{"name":"tokenAmount","type":"uint256","internalType":"uint256"}],"outputs":[],"stateMutability":"nonpayable"},{"type":"function","name":"fundsRaised","inputs":[],"outputs":[{"name":"","type":"uint256","internalType":"uint256"}],"stateMutability":"view"},{"type":"function","name":"getRoleAdmin","inputs":[{"name":"role","type":"bytes32","internalType":"bytes32"}],"outputs":[{"name":"","type":"bytes32","internalType":"bytes32"}],"stateMutability":"view"},{"type":"function","name":"getTokenAmount","inputs":[{"name":"weiAmount","type":"uint256","internalType":"uint256"}],"outputs":[{"name":"","type":"uint256","internalType":"uint256"}],"stateMutability":"view"},{"type":"function","name":"getWeiAmount","inputs":[{"name":"tokenAmount","type":"uint256","internalType":"uint256"}],"outputs":[{"name":"","type":"uint256","internalType":"uint256"}],"stateMutability":"view"},{"type":"function","name":"grantRole","inputs":[{"name":"role","type":"bytes32","internalType":"bytes32"},{"name":"account","type":"address","internalType":"address"}],"outputs":[],"stateMutability":"nonpayable"},{"type":"function","name":"hasRole","inputs":[{"name":"role","type":"bytes32","internalType":"bytes32"},{"name":"account","type":"address","internalType":"address"}],"outputs":[{"name":"","type":"bool","internalType":"bool"}],"stateMutability":"view"},{"type":"function","name":"pause","inputs":[],"outputs":[],"stateMutability":"nonpayable"},{"type":"function","name":"paused","inputs":[],"outputs":[{"name":"","type":"bool","internalType":"bool"}],"stateMutability":"view"},{"type":"function","name":"renounceRole","inputs":[{"name":"role","type":"bytes32","internalType":"bytes32"},{"name":"callerConfirmation","type":"address","internalType":"address"}],"outputs":[],"stateMutability":"nonpayable"},{"type":"function","name":"revokeRole","inputs":[{"name":"role","type":"bytes32","internalType":"bytes32"},{"name":"account","type":"address","internalType":"address"}],"outputs":[],"stateMutability":"nonpayable"},{"type":"function","name":"supportsInterface","inputs":[{"name":"interfaceId","type":"bytes4","internalType":"bytes4"}],"outputs":[{"name":"","type":"bool","internalType":"bool"}],"stateMutability":"view"},{"type":"function","name":"token","inputs":[],"outputs":[{"name":"","type":"address","internalType":"contract IERC20"}],"stateMutability":"view"},{"type":"function","name":"tokensAvailable","inputs":[],"outputs":[{"name":"","type":"uint256","internalType":"uint256"}],"stateMutability":"view"},{"type":"function","name":"unpause","inputs":[],"outputs":[],"stateMutability":"nonpayable"},{"type":"function","name":"wallet","inputs":[],"outputs":[{"name":"","type":"address","internalType":"address payable"}],"stateMutability":"view"},{"type":"event","name":"Paused","inputs":[{"name":"account","type":"address","indexed":false,"internalType":"address"}],"anonymous":false},{"type":"event","name":"RoleAdminChanged","inputs":[{"name":"role","type":"bytes32","indexed":true,"internalType":"bytes32"},{"name":"previousAdminRole","type":"bytes32","indexed":true,"internalType":"bytes32"},{"name":"newAdminRole","type":"bytes32","indexed":true,"internalType":"bytes32"}],"anonymous":false},{"type":"event","name":"RoleGranted","inputs":[{"name":"role","type":"bytes32","indexed":true,"internalType":"bytes32"},{"name":"account","type":"address","indexed":true,"internalType":"address"},{"name":"sender","type":"address","indexed":true,"internalType":"address"}],"anonymous":false},{"type":"event","name":"RoleRevoked","inputs":[{"name":"role","type":"bytes32","indexed":true,"internalType":"bytes32"},{"name":"account","type":"address","indexed":true,"internalType":"address"},{"name":"sender","type":"address","indexed":true,"internalType":"address"}],"anonymous":false},{"type":"event","name":"TokensPurchased","inputs":[{"name":"purchaser","type":"address","indexed":true,"internalType":"address"},{"name":"beneficiary","type":"address","indexed":true,"internalType":"address"},{"name":"value","type":"uint256","indexed":false,"internalType":"uint256"},{"name":"amount","type":"uint256","indexed":false,"internalType":"uint256"}],"anonymous":false},{"type":"event","name":"Unpaused","inputs":[{"name":"account","type":"address","indexed":false,"internalType":"address"}],"anonymous":false},{"type":"error","name":"AccessControlBadConfirmation","inputs":[]},{"type":"error","name":"AccessControlUnauthorizedAccount","inputs":[{"name":"account","type":"address","internalType":"address"},{"name":"neededRole","type":"bytes32","internalType":"bytes32"}]},{"type":"error","name":"EnforcedPause","inputs":[]},{"type":"error","name":"ExpectedPause","inputs":[]},{"type":"error","name":"ReentrancyGuardReentrantCall","inputs":[]}],"bytecode":{"object":"0x6080346101b457601f6114cd38819003918201601f19168301916001600160401b038311848410176101b85780849260c0946040528339810103126101b457610047816101cc565b90610054602082016101cc565b60408201519092906001600160a01b038116908190036101b45760608301519161008560a0608086015195016101cc565b9460016002558215610161576001600160a01b0316908115610110576100aa336101e0565b5060018060a01b031660018060a01b0319600454161760045560018060a01b0319600354161760035560018060a01b0319600654161760065560055560085560018060a01b031660018060a01b03196009541617600955604051611243908161026a8239f35b60405162461bcd60e51b8152602060048201526024808201527f43726f776473616c653a20746f6b656e20697320746865207a65726f206164646044820152637265737360e01b6064820152608490fd5b60405162461bcd60e51b815260206004820152602560248201527f43726f776473616c653a2077616c6c657420697320746865207a65726f206164604482015264647265737360d81b6064820152608490fd5b5f80fd5b634e487b7160e01b5f52604160045260245ffd5b51906001600160a01b03821682036101b457565b6001600160a01b0381165f9081525f5160206114ad5f395f51905f52602052604090205460ff16610264576001600160a01b03165f8181525f5160206114ad5f395f51905f5260205260408120805460ff191660011790553391907f2f8788117e7eff1d82e926ec794901d17c78024a50270940304540a733656f0d8180a4600190565b505f9056fe6080806040526004361015610028575b5036156100205761001e610b52565b005b61001e610b52565b5f3560e01c90816301ffc9a71461073f57508063248a9ca3146107145780632f2ff15d146106d657806336568abe1461066c5780633f4ba83a146105fa578063521eb273146105c75780635c975abb146105a65780635f1c37661461049657806360659a92146103ec5780636681b9fd146103cf5780637a3226ec1461039557806382d5d7ac146103775780638456cb591461030257806391d14854146102ab578063a217fddf14610291578063c2507ac11461026b578063d547741f14610228578063ec8ac4d81461013c5763fc0c546a14610105575f61000f565b34610138575f60031936011261013857602073ffffffffffffffffffffffffffffffffffffffff60035416604051908152f35b5f80fd5b602060031936011261013857610150610864565b610158610eca565b610160610f01565b610168610c09565b6101723482610f34565b73ffffffffffffffffffffffffffffffffffffffff61019034610a91565b9161019d34600754610887565b6007556101aa8382611038565b60405192348452602084015216907f6faf93231a456e552dbc9961f58d9713ee4f2e69d15f1975b050ef0911053a7b60403392a35f80808073ffffffffffffffffffffffffffffffffffffffff600654168190341561021e575b3491f115610213576001600255005b6040513d5f823e3d90fd5b6108fc9150610204565b346101385760406003193601126101385761001e600435610247610841565b90610266610261825f526001602052600160405f20015490565b610c91565b610dcc565b34610138576020600319360112610138576020610289600435610a91565b604051908152f35b34610138575f6003193601126101385760206040515f8152f35b34610138576040600319360112610138576102c4610841565b6004355f52600160205273ffffffffffffffffffffffffffffffffffffffff60405f2091165f52602052602060ff60405f2054166040519015158152f35b34610138575f6003193601126101385761031a610f01565b610322610f01565b60017fffffffffffffffffffffffffffffffffffffffffffffffffffffffffffffff005f5416175f557f62e78cea01bee320cd4e420270b5ea74000d11b0c9f74754ebdbfc544b05a2586020604051338152a1005b3461013857602060031936011261013857602061028960043561098e565b34610138575f6003193601126101385760206040517f8429d542926e6695b59ac6fbdcd9b37e8b1aeb757afab06ab60b1bb5878c3b498152f35b34610138575f600319360112610138576020600754604051908152f35b34610138575f600319360112610138576024602073ffffffffffffffffffffffffffffffffffffffff60035416604051928380927f70a082310000000000000000000000000000000000000000000000000000000082523060048301525afa8015610213575f90610463575b602090604051908152f35b506020813d60201161048e575b8161047d602093836108c1565b810103126101385760209051610458565b3d9150610470565b34610138576040600319360112610138576104af610864565b602435906104bb610eca565b6104c3610f01565b335f9081527fa6eef7e35abe7026729641147f7915573c7e97b47efa546f5f6e3230263bcb49602052604090205460ff16156105765773ffffffffffffffffffffffffffffffffffffffff906105188361098e565b926105238483610f34565b61052f84600754610887565b60075561053c8183611038565b604051938452602084015216907f6faf93231a456e552dbc9961f58d9713ee4f2e69d15f1975b050ef0911053a7b60403392a36001600255005b7fe2517d3f000000000000000000000000000000000000000000000000000000005f52336004525f60245260445ffd5b34610138575f60031936011261013857602060ff5f54166040519015158152f35b34610138575f60031936011261013857602073ffffffffffffffffffffffffffffffffffffffff60065416604051908152f35b34610138575f60031936011261013857610612610e96565b61061a610e96565b7fffffffffffffffffffffffffffffffffffffffffffffffffffffffffffffff005f54165f557f5db9ee0a495bf2e6ff9c91a7834c1ba4fdd244a5e8aa4e537bd38aeae4b073aa6020604051338152a1005b3461013857604060031936011261013857610685610841565b3373ffffffffffffffffffffffffffffffffffffffff8216036106ae5761001e90600435610dcc565b7f6697b232000000000000000000000000000000000000000000000000000000005f5260045ffd5b346101385760406003193601126101385761001e6004356106f5610841565b9061070f610261825f526001602052600160405f20015490565b610cf8565b346101385760206003193601126101385760206102896004355f526001602052600160405f20015490565b3461013857602060031936011261013857600435907fffffffff00000000000000000000000000000000000000000000000000000000821680920361013857817f1b6036c80000000000000000000000000000000000000000000000000000000060209314908115610817575b81156107ba575b5015158152f35b7f7965db0b000000000000000000000000000000000000000000000000000000008114915081156107ed575b50836107b3565b7f01ffc9a700000000000000000000000000000000000000000000000000000000915014836107e6565b7f5c975abb00000000000000000000000000000000000000000000000000000000811491506107ac565b6024359073ffffffffffffffffffffffffffffffffffffffff8216820361013857565b6004359073ffffffffffffffffffffffffffffffffffffffff8216820361013857565b9190820180921161089457565b7f4e487b71000000000000000000000000000000000000000000000000000000005f52601160045260245ffd5b90601f7fffffffffffffffffffffffffffffffffffffffffffffffffffffffffffffffe0910116810190811067ffffffffffffffff82111761090257604052565b7f4e487b71000000000000000000000000000000000000000000000000000000005f52604160045260245ffd5b519069ffffffffffffffffffff8216820361013857565b908160a09103126101385761095a8161092f565b9160208201519160408101519161097860806060840151930161092f565b90565b8181029291811591840414171561089457565b73ffffffffffffffffffffffffffffffffffffffff60045416806109c057506109bc600a916005549061097b565b0490565b60a0600491604051928380927ffeaf968c0000000000000000000000000000000000000000000000000000000082525afa908115610213575f91610a5d575b506305f5e1008202918083046305f5e100149015171561089457600554610a259161097b565b908115610a30570490565b7f4e487b71000000000000000000000000000000000000000000000000000000005f52601260045260245ffd5b610a7f915060a03d60a011610a8a575b610a7781836108c1565b810190610946565b50505090505f6109ff565b503d610a6d565b73ffffffffffffffffffffffffffffffffffffffff6004541680610acf5750600a810290808204600a1490151715610894576005546109789161097b565b9060a0600492604051938480927ffeaf968c0000000000000000000000000000000000000000000000000000000082525afa918215610213576305f5e100926109bc92610b23925f92610b2c575b5061097b565b6005549061097b565b610b4691925060a03d60a011610a8a57610a7781836108c1565b5050509050905f610b1d565b610b5a610eca565b610b62610f01565b610b6a610c09565b610b743433610f34565b610b7d34610a91565b610b8934600754610887565b600755610b968133611038565b60405190348252602082015233907f6faf93231a456e552dbc9961f58d9713ee4f2e69d15f1975b050ef0911053a7b60403392a35f80808073ffffffffffffffffffffffffffffffffffffffff6006541681903415610bff575b3491f115610213576001600255565b6108fc9150610bf0565b335f9081527f9a12e7d163daa3679fdde2f980fb077ecd75d9611348bc15a31355afb064154e602052604090205460ff1615610c4157565b7fe2517d3f000000000000000000000000000000000000000000000000000000005f52336004527f8429d542926e6695b59ac6fbdcd9b37e8b1aeb757afab06ab60b1bb5878c3b4960245260445ffd5b805f52600160205260405f2073ffffffffffffffffffffffffffffffffffffffff33165f5260205260ff60405f20541615610cc95750565b7fe2517d3f000000000000000000000000000000000000000000000000000000005f523360045260245260445ffd5b805f52600160205260405f2073ffffffffffffffffffffffffffffffffffffffff83165f5260205260ff60405f205416155f14610dc657805f52600160205260405f2073ffffffffffffffffffffffffffffffffffffffff83165f5260205260405f2060017fffffffffffffffffffffffffffffffffffffffffffffffffffffffffffffff0082541617905573ffffffffffffffffffffffffffffffffffffffff339216907f2f8788117e7eff1d82e926ec794901d17c78024a50270940304540a733656f0d5f80a4600190565b50505f90565b805f52600160205260405f2073ffffffffffffffffffffffffffffffffffffffff83165f5260205260ff60405f2054165f14610dc657805f52600160205260405f2073ffffffffffffffffffffffffffffffffffffffff83165f5260205260405f207fffffffffffffffffffffffffffffffffffffffffffffffffffffffffffffff00815416905573ffffffffffffffffffffffffffffffffffffffff339216907ff6391f5c32d9c69d2a47ea670b442974b53935d1edc7fd64eb21e047a839171b5f80a4600190565b60ff5f541615610ea257565b7f8dfc202b000000000000000000000000000000000000000000000000000000005f5260045ffd5b6002805414610ed95760028055565b7f3ee5aeb5000000000000000000000000000000000000000000000000000000005f5260045ffd5b60ff5f5416610f0c57565b7fd93c0665000000000000000000000000000000000000000000000000000000005f5260045ffd5b73ffffffffffffffffffffffffffffffffffffffff1615610fb45715610f5657565b60646040517f08c379a000000000000000000000000000000000000000000000000000000000815260206004820152601660248201527f43726f776473616c653a20616d6f756e742069732030000000000000000000006044820152fd5b60846040517f08c379a000000000000000000000000000000000000000000000000000000000815260206004820152602a60248201527f43726f776473616c653a2062656e656669636961727920697320746865207a6560448201527f726f2061646472657373000000000000000000000000000000000000000000006064820152fd5b600854909190156111015773ffffffffffffffffffffffffffffffffffffffff6009541660085492813b1561013857606473ffffffffffffffffffffffffffffffffffffffff915f809460405197889586947ff74bc9d600000000000000000000000000000000000000000000000000000000865216600485015260248401528660448401525af1918215610213576110ef926110f1575b5073ffffffffffffffffffffffffffffffffffffffff60095416611106565b565b5f6110fb916108c1565b5f6110d0565b6110ef915b73ffffffffffffffffffffffffffffffffffffffff60446020925f836003541660405196879586947fa9059cbb00000000000000000000000000000000000000000000000000000000865216600485015260248401525af1908115610213575f916111d2575b501561117457565b60646040517f08c379a000000000000000000000000000000000000000000000000000000000815260206004820152601560248201527f5472616e7366657220756e7375636365737366756c00000000000000000000006044820152fd5b90506020813d602011611205575b816111ed602093836108c1565b8101031261013857518015158103610138575f61116c565b3d91506111e056fea2646970667358221220e363f923ba86e586087cddb7d07eb77b0535b9b0311c3082d6acb4105ccd19a364736f6c634300081b0033a6eef7e35abe7026729641147f7915573c7e97b47efa546f5f6e3230263bcb49","linkReferences":{}},"methodIdentifiers":{"DEFAULT_ADMIN_ROLE()":"a217fddf","WHITELISTED_ROLE()":"7a3226ec","buyTokens(address)":"ec8ac4d8","externalBuyTokens(address,uint256)":"5f1c3766","fundsRaised()":"6681b9fd","getRoleAdmin(bytes32)":"248a9ca3","getTokenAmount(uint256)":"c2507ac1","getWeiAmount(uint256)":"82d5d7ac","grantRole(bytes32,address)":"2f2ff15d","hasRole(bytes32,address)":"91d14854","pause()":"8456cb59","paused()":"5c975abb","renounceRole(bytes32,address)":"36568abe","revokeRole(bytes32,address)":"d547741f","supportsInterface(bytes4)":"01ffc9a7","token()":"fc0c546a","tokensAvailable()":"60659a92","unpause()":"3f4ba83a","wallet()":"521eb273"},"id":6}