{"abi":[{"type":"constructor","inputs":[{"name":"name_","type":"string","internalType":"string"},{"name":"symbol_","type":"string","internalType":"string"},{"name":"supply_","type":"uint256","internalType":"uint256"},{"name":"wallet_","type":"address","internalType":"address"}],"stateMutability":"nonpayable"},{"type":"function","name":"DEFAULT_ADMIN_ROLE","inputs":[],"outputs":[{"name":"","type":"bytes32","internalType":"bytes32"}],"stateMutability":"view"},{"type":"function","name":"allowance","inputs":[{"name":"owner","type":"address","internalType":"address"},{"name":"spender","type":"address","internalType":"address"}],"outputs":[{"name":"","type":"uint256","internalType":"uint256"}],"stateMutability":"view"},{"type":"function","name":"approve","inputs":[{"name":"spender","type":"address","internalType":"address"},{"name":"value","type":"uint256","internalType":"uint256"}],"outputs":[{"name":"","type":"bool","internalType":"bool"}],"stateMutability":"nonpayable"},{"type":"function","name":"balanceOf","inputs":[{"name":"account","type":"address","internalType":"address"}],"outputs":[{"name":"","type":"uint256","internalType":"uint256"}],"stateMutability":"view"},{"type":"function","name":"decimals","inputs":[],"outputs":[{"name":"","type":"uint8","internalType":"uint8"}],"stateMutability":"view"},{"type":"function","name":"getRoleAdmin","inputs":[{"name":"role","type":"bytes32","internalType":"bytes32"}],"outputs":[{"name":"","type":"bytes32","internalType":"bytes32"}],"stateMutability":"view"},{"type":"function","name":"grantRole","inputs":[{"name":"role","type":"bytes32","internalType":"bytes32"},{"name":"account","type":"address","internalType":"address"}],"outputs":[],"stateMutability":"nonpayable"},{"type":"function","name":"hasRole","inputs":[{"name":"role","type":"bytes32","internalType":"bytes32"},{"name":"account","type":"address","internalType":"address"}],"outputs":[{"name":"","type":"bool","internalType":"bool"}],"stateMutability":"view"},{"type":"function","name":"name","inputs":[],"outputs":[{"name":"","type":"string","internalType":"string"}],"stateMutability":"view"},{"type":"function","name":"renounceRole","inputs":[{"name":"role","type":"bytes32","internalType":"bytes32"},{"name":"callerConfirmation","type":"address","internalType":"address"}],"outputs":[],"stateMutability":"nonpayable"},{"type":"function","name":"revokeRole","inputs":[{"name":"role","type":"bytes32","internalType":"bytes32"},{"name":"account","type":"address","internalType":"address"}],"outputs":[],"stateMutability":"nonpayable"},{"type":"function","name":"supportsInterface","inputs":[{"name":"interfaceId","type":"bytes4","internalType":"bytes4"}],"outputs":[{"name":"","type":"bool","internalType":"bool"}],"stateMutability":"view"},{"type":"function","name":"symbol","inputs":[],"outputs":[{"name":"","type":"string","internalType":"string"}],"stateMutability":"view"},{"type":"function","name":"totalSupply","inputs":[],"outputs":[{"name":"","type":"uint256","internalType":"uint256"}],"stateMutability":"view"},{"type":"function","name":"transfer","inputs":[{"name":"to","type":"address","internalType":"address"},{"name":"value","type":"uint256","internalType":"uint256"}],"outputs":[{"name":"","type":"bool","internalType":"bool"}],"stateMutability":"nonpayable"},{"type":"function","name":"transferFrom","inputs":[{"name":"from","type":"address","internalType":"address"},{"name":"to","type":"address","internalType":"address"},{"name":"value","type":"uint256","internalType":"uint256"}],"outputs":[{"name":"","type":"bool","internalType":"bool"}],"stateMutability":"nonpayable"},{"type":"event","name":"Approval","inputs":[{"name":"owner","type":"address","indexed":true,"internalType":"address"},{"name":"spender","type":"address","indexed":true,"internalType":"address"},{"name":"value","type":"uint256","indexed":false,"internalType":"uint256"}],"anonymous":false},{"type":"event","name":"RoleAdminChanged","inputs":[{"name":"role","type":"bytes32","indexed":true,"internalType":"bytes32"},{"name":"previousAdminRole","type":"bytes32","indexed":true,"internalType":"bytes32"},{"name":"newAdminRole","type":"bytes32","indexed":true,"internalType":"bytes32"}],"anonymous":false},{"type":"event","name":"RoleGranted","inputs":[{"name":"role","type":"bytes32","indexed":true,"internalType":"bytes32"},{"name":"account","type":"address","indexed":true,"internalType":"address"},{"name":"sender","type":"address","indexed":true,"internalType":"address"}],"anonymous":false},{"type":"event","name":"RoleRevoked","inputs":[{"name":"role","type":"bytes32","indexed":true,"internalType":"bytes32"},{"name":"account","type":"address","indexed":true,"internalType":"address"},{"name":"sender","type":"address","indexed":true,"internalType":"address"}],"anonymous":false},{"type":"event","name":"Transfer","inputs":[{"name":"from","type":"address","indexed":true,"internalType":"address"},{"name":"to","type":"address","indexed":true,"internalType":"address"},{"name":"value","type":"uint256","indexed":false,"internalType":"uint256"}],"anonymous":false},{"type":"error","name":"AccessControlBadConfirmation","inputs":[]},{"type":"error","name":"AccessControlUnauthorizedAccount","inputs":[{"name":"account","type":"address","internalType":"address"},{"name":"neededRole","type":"bytes32","internalType":"bytes32"}]},{"type":"error","name":"ERC20InsufficientAllowance","inputs":[{"name":"spender","type":"address","internalType":"address"},{"name":"allowance","type":"uint256","internalType":"uint256"},{"name":"needed","type":"uint256","internalType":"uint256"}]},{"type":"error","name":"ERC20InsufficientBalance","inputs":[{"name":"sender","type":"address","internalType":"address"},{"name":"balance","type":"uint256","internalType":"uint256"},{"name":"needed","type":"uint256","internalType":"uint256"}]},{"type":"error","name":"ERC20InvalidApprover","inputs":[{"name":"approver","type":"address","internalType":"address"}]},{"type":"error","name":"ERC20InvalidReceiver","inputs":[{"name":"receiver","type":"address","internalType":"address"}]},{"type":"error","name":"ERC20InvalidSender","inputs":[{"name":"sender","type":"address","internalType":"address"}]},{"type":"error","name":"ERC20InvalidSpender","inputs":[{"name":"spender","type":"address","internalType":"address"}]}],"bytecode":{"object":"0x6080604052346103bb5761112080380380610019816103bf565b9283398101906080818303126103bb5780516001600160401b0381116103bb57826100459183016103e4565b602082015190926001600160401b0382116103bb576100659183016103e4565b604082015160609092015190916001600160a01b038216918290036103bb5783516001600160401b0381116102cc57600354600181811c911680156103b1575b60208210146102ae57601f811161034e575b50602094601f82116001146102eb579481929394955f926102e0575b50508160011b915f199060031b1c1916176003555b82516001600160401b0381116102cc57600454600181811c911680156102c2575b60208210146102ae57601f811161024b575b506020601f82116001146101e857819293945f926101dd575b50508160011b915f199060031b1c1916176004555b61015233610435565b5081156101ca57600254908082018092116101b65760207fddf252ad1be2c89b69c2b068fc378daa952ba7f163c4a11628f55a4df523b3ef915f9360025584845283825260408420818154019055604051908152a3604051610c4190816104bf8239f35b634e487b7160e01b5f52601160045260245ffd5b63ec442f0560e01b5f525f60045260245ffd5b015190505f80610134565b601f1982169060045f52805f20915f5b8181106102335750958360019596971061021b575b505050811b01600455610149565b01515f1960f88460031b161c191690555f808061020d565b9192602060018192868b0151815501940192016101f8565b60045f527f8a35acfbc15ff81a39ae7d344fd709f28e8600b4aa8c65c6b64bfe7fe36bd19b601f830160051c810191602084106102a4575b601f0160051c01905b818110610299575061011b565b5f815560010161028c565b9091508190610283565b634e487b7160e01b5f52602260045260245ffd5b90607f1690610109565b634e487b7160e01b5f52604160045260245ffd5b015190505f806100d3565b601f1982169560035f52805f20915f5b8881106103365750836001959697981061031e575b505050811b016003556100e8565b01515f1960f88460031b161c191690555f8080610310565b919260206001819286850151815501940192016102fb565b60035f527fc2575a0e9e593c00f959f8c92f12db2869c3395a3b0502d05e2516446f71f85b601f830160051c810191602084106103a7575b601f0160051c01905b81811061039c57506100b7565b5f815560010161038f565b9091508190610386565b90607f16906100a5565b5f80fd5b6040519190601f01601f191682016001600160401b038111838210176102cc57604052565b81601f820112156103bb578051906001600160401b0382116102cc57610413601f8301601f19166020016103bf565b92828452602083830101116103bb57815f9260208093018386015e8301015290565b6001600160a01b0381165f9081525f5160206111005f395f51905f52602052604090205460ff166104b9576001600160a01b03165f8181525f5160206111005f395f51905f5260205260408120805460ff191660011790553391907f2f8788117e7eff1d82e926ec794901d17c78024a50270940304540a733656f0d8180a4600190565b505f9056fe6080806040526004361015610012575f80fd5b5f3560e01c90816301ffc9a7146107d65750806306fdde03146106fc578063095ea7b31461066d57806318160ddd1461065057806323b872dd146104da578063248a9ca3146104a75780632f2ff15d14610469578063313ce5671461044e57806336568abe146103e457806370a08231146103a057806391d148541461034957806395d89b41146101ce578063a217fddf146101b4578063a9059cbb14610183578063d547741f1461013e5763dd62ed3e146100cc575f80fd5b3461013a57604060031936011261013a576100e561089e565b73ffffffffffffffffffffffffffffffffffffffff6101026108c1565b91165f52600160205273ffffffffffffffffffffffffffffffffffffffff60405f2091165f52602052602060405f2054604051908152f35b5f80fd5b3461013a57604060031936011261013a5761018160043561015d6108c1565b9061017c610177825f526005602052600160405f20015490565b610a06565b610b41565b005b3461013a57604060031936011261013a576101a961019f61089e565b60243590336108e4565b602060405160018152f35b3461013a575f60031936011261013a5760206040515f8152f35b3461013a575f60031936011261013a576040515f600454908160011c6001831692831561033f575b6020821084146103125781855284939081156102d05750600114610274575b5003601f01601f191681019067ffffffffffffffff8211818310176102475761024382918260405282610874565b0390f35b7f4e487b71000000000000000000000000000000000000000000000000000000005f52604160045260245ffd5b60045f90815291507f8a35acfbc15ff81a39ae7d344fd709f28e8600b4aa8c65c6b64bfe7fe36bd19b5b8183106102b45750508101602001601f19610215565b602091935080600191548385880101520191019091839261029e565b7fffffffffffffffffffffffffffffffffffffffffffffffffffffffffffffff001660208581019190915291151560051b84019091019150601f199050610215565b7f4e487b71000000000000000000000000000000000000000000000000000000005f52602260045260245ffd5b90607f16906101f6565b3461013a57604060031936011261013a576103626108c1565b6004355f52600560205273ffffffffffffffffffffffffffffffffffffffff60405f2091165f52602052602060ff60405f2054166040519015158152f35b3461013a57602060031936011261013a5773ffffffffffffffffffffffffffffffffffffffff6103ce61089e565b165f525f602052602060405f2054604051908152f35b3461013a57604060031936011261013a576103fd6108c1565b3373ffffffffffffffffffffffffffffffffffffffff8216036104265761018190600435610b41565b7f6697b232000000000000000000000000000000000000000000000000000000005f5260045ffd5b3461013a575f60031936011261013a57602060405160128152f35b3461013a57604060031936011261013a576101816004356104886108c1565b906104a2610177825f526005602052600160405f20015490565b610a6d565b3461013a57602060031936011261013a5760206104d26004355f526005602052600160405f20015490565b604051908152f35b3461013a57606060031936011261013a576104f361089e565b6104fb6108c1565b6044359073ffffffffffffffffffffffffffffffffffffffff831692835f52600160205260405f2073ffffffffffffffffffffffffffffffffffffffff33165f5260205260405f20547fffffffffffffffffffffffffffffffffffffffffffffffffffffffffffffffff8110610577575b506101a993506108e4565b83811061061c5784156105f05733156105c4576101a9945f52600160205260405f2073ffffffffffffffffffffffffffffffffffffffff33165f526020528360405f20910390558461056c565b7f94280d62000000000000000000000000000000000000000000000000000000005f525f60045260245ffd5b7fe602df05000000000000000000000000000000000000000000000000000000005f525f60045260245ffd5b83907ffb8f41b2000000000000000000000000000000000000000000000000000000005f523360045260245260445260645ffd5b3461013a575f60031936011261013a576020600254604051908152f35b3461013a57604060031936011261013a5761068661089e565b6024359033156105f05773ffffffffffffffffffffffffffffffffffffffff169081156105c457335f52600160205260405f20825f526020528060405f20556040519081527f8c5be1e5ebec7d5bd14f71427d1e84f3dd0314c0f7b2291e5b200ac8c7c3b92560203392a3602060405160018152f35b3461013a575f60031936011261013a576040515f600354908160011c600183169283156107cc575b6020821084146103125781855284939081156102d05750600114610770575003601f01601f191681019067ffffffffffffffff8211818310176102475761024382918260405282610874565b60035f90815291507fc2575a0e9e593c00f959f8c92f12db2869c3395a3b0502d05e2516446f71f85b5b8183106107b05750508101602001601f19610215565b602091935080600191548385880101520191019091839261079a565b90607f1690610724565b3461013a57602060031936011261013a57600435907fffffffff00000000000000000000000000000000000000000000000000000000821680920361013a57817f7965db0b000000000000000000000000000000000000000000000000000000006020931490811561084a575b5015158152f35b7f01ffc9a70000000000000000000000000000000000000000000000000000000091501483610843565b601f19601f602060409481855280519182918282880152018686015e5f8582860101520116010190565b6004359073ffffffffffffffffffffffffffffffffffffffff8216820361013a57565b6024359073ffffffffffffffffffffffffffffffffffffffff8216820361013a57565b73ffffffffffffffffffffffffffffffffffffffff169081156109da5773ffffffffffffffffffffffffffffffffffffffff169182156109ae57815f525f60205260405f205481811061097c57817fddf252ad1be2c89b69c2b068fc378daa952ba7f163c4a11628f55a4df523b3ef92602092855f525f84520360405f2055845f525f825260405f20818154019055604051908152a3565b827fe450d38c000000000000000000000000000000000000000000000000000000005f5260045260245260445260645ffd5b7fec442f05000000000000000000000000000000000000000000000000000000005f525f60045260245ffd5b7f96c6fd1e000000000000000000000000000000000000000000000000000000005f525f60045260245ffd5b805f52600560205260405f2073ffffffffffffffffffffffffffffffffffffffff33165f5260205260ff60405f20541615610a3e5750565b7fe2517d3f000000000000000000000000000000000000000000000000000000005f523360045260245260445ffd5b805f52600560205260405f2073ffffffffffffffffffffffffffffffffffffffff83165f5260205260ff60405f205416155f14610b3b57805f52600560205260405f2073ffffffffffffffffffffffffffffffffffffffff83165f5260205260405f2060017fffffffffffffffffffffffffffffffffffffffffffffffffffffffffffffff0082541617905573ffffffffffffffffffffffffffffffffffffffff339216907f2f8788117e7eff1d82e926ec794901d17c78024a50270940304540a733656f0d5f80a4600190565b50505f90565b805f52600560205260405f2073ffffffffffffffffffffffffffffffffffffffff83165f5260205260ff60405f2054165f14610b3b57805f52600560205260405f2073ffffffffffffffffffffffffffffffffffffffff83165f5260205260405f207fffffffffffffffffffffffffffffffffffffffffffffffffffffffffffffff00815416905573ffffffffffffffffffffffffffffffffffffffff339216907ff6391f5c32d9c69d2a47ea670b442974b53935d1edc7fd64eb21e047a839171b5f80a460019056fea26469706673582212204c1473072045628c763cb667d4e6117643be187fafd207d6ddd41a67649172b364736f6c634300081b003305b8ccbb9d4d8fb16ea74ce3c29a41f1b461fbdaff4714a0d9a8eb05499746bc","linkReferences":{}},"methodIdentifiers":{"DEFAULT_ADMIN_ROLE()":"a217fddf","allowance(address,address)":"dd62ed3e","approve(address,uint256)":"095ea7b3","balanceOf(address)":"70a08231","decimals()":"313ce567","getRoleAdmin(bytes32)":"248a9ca3","grantRole(bytes32,address)":"2f2ff15d","hasRole(bytes32,address)":"91d14854","name()":"06fdde03","renounceRole(bytes32,address)":"36568abe","revokeRole(bytes32,address)":"d547741f","supportsInterface(bytes4)":"01ffc9a7","symbol()":"95d89b41","totalSupply()":"18160ddd","transfer(address,uint256)":"a9059cbb","transferFrom(address,address,uint256)":"23b872dd"},"id":1}