{"abi":[{"type":"constructor","inputs":[{"name":"token_","type":"address","internalType":"contract IERC20"}],"stateMutability":"nonpayable"},{"type":"function","name":"DEFAULT_ADMIN_ROLE","inputs":[],"outputs":[{"name":"","type":"bytes32","internalType":"bytes32"}],"stateMutability":"view"},{"type":"function","name":"VAULT_CONTROLLER_ROLE","inputs":[],"outputs":[{"name":"","type":"bytes32","internalType":"bytes32"}],"stateMutability":"view"},{"type":"function","name":"addBeneficiary","inputs":[{"name":"beneficiary_","type":"address","internalType":"address"},{"name":"releaseTime_","type":"uint256","internalType":"uint256"},{"name":"tokenAmount_","type":"uint256","internalType":"uint256"}],"outputs":[],"stateMutability":"nonpayable"},{"type":"function","name":"getRoleAdmin","inputs":[{"name":"role","type":"bytes32","internalType":"bytes32"}],"outputs":[{"name":"","type":"bytes32","internalType":"bytes32"}],"stateMutability":"view"},{"type":"function","name":"grantRole","inputs":[{"name":"role","type":"bytes32","internalType":"bytes32"},{"name":"account","type":"address","internalType":"address"}],"outputs":[],"stateMutability":"nonpayable"},{"type":"function","name":"hasRole","inputs":[{"name":"role","type":"bytes32","internalType":"bytes32"},{"name":"account","type":"address","internalType":"address"}],"outputs":[{"name":"","type":"bool","internalType":"bool"}],"stateMutability":"view"},{"type":"function","name":"release","inputs":[],"outputs":[],"stateMutability":"nonpayable"},{"type":"function","name":"renounceRole","inputs":[{"name":"role","type":"bytes32","internalType":"bytes32"},{"name":"callerConfirmation","type":"address","internalType":"address"}],"outputs":[],"stateMutability":"nonpayable"},{"type":"function","name":"revokeRole","inputs":[{"name":"role","type":"bytes32","internalType":"bytes32"},{"name":"account","type":"address","internalType":"address"}],"outputs":[],"stateMutability":"nonpayable"},{"type":"function","name":"supportsInterface","inputs":[{"name":"interfaceId","type":"bytes4","internalType":"bytes4"}],"outputs":[{"name":"","type":"bool","internalType":"bool"}],"stateMutability":"view"},{"type":"function","name":"token","inputs":[],"outputs":[{"name":"","type":"address","internalType":"contract IERC20"}],"stateMutability":"view"},{"type":"function","name":"vestingFor","inputs":[{"name":"beneficiary_","type":"address","internalType":"address"}],"outputs":[{"name":"","type":"tuple[]","internalType":"struct IVestingVault.Vesting[]","components":[{"name":"beneficiary","type":"address","internalType":"address"},{"name":"releaseTime","type":"uint256","internalType":"uint256"},{"name":"tokenAmount","type":"uint256","internalType":"uint256"}]}],"stateMutability":"view"},{"type":"event","name":"RoleAdminChanged","inputs":[{"name":"role","type":"bytes32","indexed":true,"internalType":"bytes32"},{"name":"previousAdminRole","type":"bytes32","indexed":true,"internalType":"bytes32"},{"name":"newAdminRole","type":"bytes32","indexed":true,"internalType":"bytes32"}],"anonymous":false},{"type":"event","name":"RoleGranted","inputs":[{"name":"role","type":"bytes32","indexed":true,"internalType":"bytes32"},{"name":"account","type":"address","indexed":true,"internalType":"address"},{"name":"sender","type":"address","indexed":true,"internalType":"address"}],"anonymous":false},{"type":"event","name":"RoleRevoked","inputs":[{"name":"role","type":"bytes32","indexed":true,"internalType":"bytes32"},{"name":"account","type":"address","indexed":true,"internalType":"address"},{"name":"sender","type":"address","indexed":true,"internalType":"address"}],"anonymous":false},{"type":"event","name":"VestingLockedIn","inputs":[{"name":"beneficiary","type":"address","indexed":true,"internalType":"address"},{"name":"releaseTime","type":"uint256","indexed":false,"internalType":"uint256"},{"name":"tokenAmount","type":"uint256","indexed":false,"internalType":"uint256"}],"anonymous":false},{"type":"event","name":"VestingReleased","inputs":[{"name":"beneficiary","type":"address","indexed":true,"internalType":"address"},{"name":"releaseTime","type":"uint256","indexed":false,"internalType":"uint256"},{"name":"tokenAmount","type":"uint256","indexed":false,"internalType":"uint256"}],"anonymous":false},{"type":"error","name":"AccessControlBadConfirmation","inputs":[]},{"type":"error","name":"AccessControlUnauthorizedAccount","inputs":[{"name":"account","type":"address","internalType":"address"},{"name":"neededRole","type":"bytes32","internalType":"bytes32"}]}],"bytecode":{"object":"0x60a0346100f057601f61100d38819003918201601f19168301916001600160401b038311848410176100f4578084926020946040528339810103126100f057516001600160a01b03811681036100f05760805261005b33610108565b507f9872d9a33a826e6fa63de183f4672fa7578a62703fcc3dcc926810a2b5a12fd95f81815260208190527f18b789f689298f9861c64acec43fb83a444fe0a0d93f282ad4f66651300c99a5805490829055604051927fbd79b86ffe0ab8e8776151514217cd7cacd52c909f66475c3af44e129f0b00ff8380a4610e5b9081610192823960805181818160cc01526105250152f35b5f80fd5b634e487b7160e01b5f52604160045260245ffd5b6001600160a01b0381165f9081525f516020610fed5f395f51905f52602052604090205460ff1661018c576001600160a01b03165f8181525f516020610fed5f395f51905f5260205260408120805460ff191660011790553391907f2f8788117e7eff1d82e926ec794901d17c78024a50270940304540a733656f0d8180a4600190565b505f9056fe6080806040526004361015610012575f80fd5b5f3560e01c90816301ffc9a7146107e557508063248a9ca3146107b35780632f2ff15d1461077657806336568abe1461070c578063704e2b2d146106d257806386d1a69f146103bc57806391d1485414610366578063a217fddf1461034c578063d547741f1461030a578063f4753b38146101a6578063f74bc9d6146100f45763fc0c546a146100a0575f80fd5b346100f0575f6003193601126100f057602060405173ffffffffffffffffffffffffffffffffffffffff7f0000000000000000000000000000000000000000000000000000000000000000168152f35b5f80fd5b346100f05760606003193601126100f05761010d6108d9565b335f9081527f18b789f689298f9861c64acec43fb83a444fe0a0d93f282ad4f66651300c99a4602052604090205460ff1615610156576101549060443590602435906109ed565b005b7fe2517d3f000000000000000000000000000000000000000000000000000000005f52336004527f9872d9a33a826e6fa63de183f4672fa7578a62703fcc3dcc926810a2b5a12fd960245260445ffd5b346100f05760206003193601126100f05773ffffffffffffffffffffffffffffffffffffffff6101d46108d9565b165f52600160205260405f2080549067ffffffffffffffff82116102dd576040519161020660208260051b0184610918565b8083526020830180925f5260205f205f915b838310610290578486604051918291602083019060208452518091526040830191905f5b81811061024a575050500390f35b91935091602060606001926040875173ffffffffffffffffffffffffffffffffffffffff815116835284810151858401520151604082015201940191019184939261023c565b600360206001926040516102a3816108fc565b73ffffffffffffffffffffffffffffffffffffffff8654168152848601548382015260028601546040820152815201920192019190610218565b7f4e487b71000000000000000000000000000000000000000000000000000000005f52604160045260245ffd5b346100f05760406003193601126100f0576101546004356103296108b6565b90610347610342825f525f602052600160405f20015490565b610c25565b610d5d565b346100f0575f6003193601126100f05760206040515f8152f35b346100f05760406003193601126100f05761037f6108b6565b6004355f525f60205273ffffffffffffffffffffffffffffffffffffffff60405f2091165f52602052602060ff60405f2054166040519015158152f35b346100f0575f6003193601126100f057335f52600160205260405f20805467ffffffffffffffff81116102dd57604051916103fd60208360051b0184610918565b81835260208301905f5260205f205f915b838310610685575f85815b81518110156104ce5742602061042f8385610959565b5101511115610441575b600101610419565b9161045d60019160406104548686610959565b5101519061099a565b92602061046a8285610959565b51015160406104798386610959565b51015160405191825260208201527fc35bc0b152cc4084b62942d2235605f7e5db6fc6217bc7ef532ba71acf7a58ce60403392a2335f52816020525f60026104c483604084206109d4565b5001559050610439565b82801561060157604051907fa9059cbb00000000000000000000000000000000000000000000000000000000825233600483015260248201526020816044815f73ffffffffffffffffffffffffffffffffffffffff7f0000000000000000000000000000000000000000000000000000000000000000165af19081156105f6575f916105bb575b501561055d57005b60646040517f08c379a000000000000000000000000000000000000000000000000000000000815260206004820152601b60248201527f546f6b656e207472616e7366657220756e7375636365737366756c00000000006044820152fd5b90506020813d6020116105ee575b816105d660209383610918565b810103126100f0575180151581036100f05781610555565b3d91506105c9565b6040513d5f823e3d90fd5b60846040517f08c379a000000000000000000000000000000000000000000000000000000000815260206004820152602560248201527f56657374696e675661756c743a2043616e6e6f742072656c656173652030207460448201527f6f6b656e730000000000000000000000000000000000000000000000000000006064820152fd5b60036020600192604051610698816108fc565b73ffffffffffffffffffffffffffffffffffffffff865416815284860154838201526002860154604082015281520192019201919061040e565b346100f0575f6003193601126100f05760206040517f9872d9a33a826e6fa63de183f4672fa7578a62703fcc3dcc926810a2b5a12fd98152f35b346100f05760406003193601126100f0576107256108b6565b3373ffffffffffffffffffffffffffffffffffffffff82160361074e5761015490600435610d5d565b7f6697b232000000000000000000000000000000000000000000000000000000005f5260045ffd5b346100f05760406003193601126100f0576101546004356107956108b6565b906107ae610342825f525f602052600160405f20015490565b610c8b565b346100f05760206003193601126100f05760206107dd6004355f525f602052600160405f20015490565b604051908152f35b346100f05760206003193601126100f057600435907fffffffff0000000000000000000000000000000000000000000000000000000082168092036100f057817f79e3001b0000000000000000000000000000000000000000000000000000000060209314908115610859575b5015158152f35b7f7965db0b0000000000000000000000000000000000000000000000000000000081149150811561088c575b5083610852565b7f01ffc9a70000000000000000000000000000000000000000000000000000000091501483610885565b6024359073ffffffffffffffffffffffffffffffffffffffff821682036100f057565b6004359073ffffffffffffffffffffffffffffffffffffffff821682036100f057565b6060810190811067ffffffffffffffff8211176102dd57604052565b90601f7fffffffffffffffffffffffffffffffffffffffffffffffffffffffffffffffe0910116810190811067ffffffffffffffff8211176102dd57604052565b805182101561096d5760209160051b010190565b7f4e487b71000000000000000000000000000000000000000000000000000000005f52603260045260245ffd5b919082018092116109a757565b7f4e487b71000000000000000000000000000000000000000000000000000000005f52601160045260245ffd5b805482101561096d575f52600360205f20910201905f90565b73ffffffffffffffffffffffffffffffffffffffff1690815f52600160205260405f2092835467ffffffffffffffff81116102dd5760405194610a3660208360051b0187610918565b81865260208601905f5260205f205f915b838310610bd857505050505f5b8451811015610ad4576020610a698287610959565b5101518314610a7a57600101610a54565b839450906002610ab8604094937f970b25b911957fbf97ef28d72fcbb6175e7b3b97729a26ef75ce09e4a72c0fac965f526001602052855f206109d4565b5001610ac582825461099a565b905582519182526020820152a2565b5090919250825f52600160205260405f209160405191610af3836108fc565b848352602083019282845260408101948286528054680100000000000000008110156102dd57610b28916001820181556109d4565b919091610bac577f970b25b911957fbf97ef28d72fcbb6175e7b3b97729a26ef75ce09e4a72c0fac9560409573ffffffffffffffffffffffffffffffffffffffff60029351167fffffffffffffffffffffffff00000000000000000000000000000000000000008554161784555160018401555191015582519182526020820152a2565b7f4e487b71000000000000000000000000000000000000000000000000000000005f525f60045260245ffd5b60036020600192604051610beb816108fc565b73ffffffffffffffffffffffffffffffffffffffff8654168152848601548382015260028601546040820152815201920192019190610a47565b805f525f60205260405f2073ffffffffffffffffffffffffffffffffffffffff33165f5260205260ff60405f20541615610c5c5750565b7fe2517d3f000000000000000000000000000000000000000000000000000000005f523360045260245260445ffd5b805f525f60205260405f2073ffffffffffffffffffffffffffffffffffffffff83165f5260205260ff60405f205416155f14610d5757805f525f60205260405f2073ffffffffffffffffffffffffffffffffffffffff83165f5260205260405f2060017fffffffffffffffffffffffffffffffffffffffffffffffffffffffffffffff0082541617905573ffffffffffffffffffffffffffffffffffffffff339216907f2f8788117e7eff1d82e926ec794901d17c78024a50270940304540a733656f0d5f80a4600190565b50505f90565b805f525f60205260405f2073ffffffffffffffffffffffffffffffffffffffff83165f5260205260ff60405f2054165f14610d5757805f525f60205260405f2073ffffffffffffffffffffffffffffffffffffffff83165f5260205260405f207fffffffffffffffffffffffffffffffffffffffffffffffffffffffffffffff00815416905573ffffffffffffffffffffffffffffffffffffffff339216907ff6391f5c32d9c69d2a47ea670b442974b53935d1edc7fd64eb21e047a839171b5f80a460019056fea2646970667358221220205398a90fc56122b3fc6b4b20f9a212830dca9ab041454261fa6389eed73d6064736f6c634300081b0033ad3228b676f7d3cd4284a5443f17f1962b36e491b30a40b2405849e597ba5fb5","linkReferences":{}},"methodIdentifiers":{"DEFAULT_ADMIN_ROLE()":"a217fddf","VAULT_CONTROLLER_ROLE()":"704e2b2d","addBeneficiary(address,uint256,uint256)":"f74bc9d6","getRoleAdmin(bytes32)":"248a9ca3","grantRole(bytes32,address)":"2f2ff15d","hasRole(bytes32,address)":"91d14854","release()":"86d1a69f","renounceRole(bytes32,address)":"36568abe","revokeRole(bytes32,address)":"d547741f","supportsInterface(bytes4)":"01ffc9a7","token()":"fc0c546a","vestingFor(address)":"f4753b38"},"id":2}